{
  "contractName": "HealthCare",
  "abi": [
    {
      "inputs": [
        {
          "internalType": "address",
          "name": "_labAdmin",
          "type": "address"
        }
      ],
      "stateMutability": "nonpayable",
      "type": "constructor"
    },
    {
      "anonymous": false,
      "inputs": [
        {
          "indexed": false,
          "internalType": "uint256",
          "name": "ID",
          "type": "uint256"
        },
        {
          "indexed": false,
          "internalType": "string",
          "name": "testName",
          "type": "string"
        },
        {
          "indexed": false,
          "internalType": "string",
          "name": "date",
          "type": "string"
        },
        {
          "indexed": false,
          "internalType": "string",
          "name": "hospitalName",
          "type": "string"
        },
        {
          "indexed": false,
          "internalType": "uint256",
          "name": "price",
          "type": "uint256"
        }
      ],
      "name": "recordCreated",
      "type": "event"
    },
    {
      "anonymous": false,
      "inputs": [
        {
          "indexed": false,
          "internalType": "uint256",
          "name": "ID",
          "type": "uint256"
        },
        {
          "indexed": false,
          "internalType": "string",
          "name": "testName",
          "type": "string"
        },
        {
          "indexed": false,
          "internalType": "string",
          "name": "date",
          "type": "string"
        },
        {
          "indexed": false,
          "internalType": "string",
          "name": "hospitalName",
          "type": "string"
        },
        {
          "indexed": false,
          "internalType": "uint256",
          "name": "price",
          "type": "uint256"
        }
      ],
      "name": "recordSigned",
      "type": "event"
    },
    {
      "inputs": [
        {
          "internalType": "uint256",
          "name": "",
          "type": "uint256"
        }
      ],
      "name": "_records",
      "outputs": [
        {
          "internalType": "uint256",
          "name": "ID",
          "type": "uint256"
        },
        {
          "internalType": "uint256",
          "name": "price",
          "type": "uint256"
        },
        {
          "internalType": "uint256",
          "name": "signatureCount",
          "type": "uint256"
        },
        {
          "internalType": "string",
          "name": "testName",
          "type": "string"
        },
        {
          "internalType": "string",
          "name": "date",
          "type": "string"
        },
        {
          "internalType": "string",
          "name": "hospitalName",
          "type": "string"
        },
        {
          "internalType": "bool",
          "name": "isValue",
          "type": "bool"
        },
        {
          "internalType": "address",
          "name": "pAddr",
          "type": "address"
        }
      ],
      "stateMutability": "view",
      "type": "function",
      "constant": true
    },
    {
      "inputs": [],
      "name": "hospitalAdmin",
      "outputs": [
        {
          "internalType": "address",
          "name": "",
          "type": "address"
        }
      ],
      "stateMutability": "view",
      "type": "function",
      "constant": true
    },
    {
      "inputs": [],
      "name": "labAdmin",
      "outputs": [
        {
          "internalType": "address",
          "name": "",
          "type": "address"
        }
      ],
      "stateMutability": "view",
      "type": "function",
      "constant": true
    },
    {
      "inputs": [
        {
          "internalType": "uint256",
          "name": "",
          "type": "uint256"
        }
      ],
      "name": "recordsArr",
      "outputs": [
        {
          "internalType": "uint256",
          "name": "",
          "type": "uint256"
        }
      ],
      "stateMutability": "view",
      "type": "function",
      "constant": true
    },
    {
      "inputs": [
        {
          "internalType": "uint256",
          "name": "_ID",
          "type": "uint256"
        },
        {
          "internalType": "uint256",
          "name": "price",
          "type": "uint256"
        },
        {
          "internalType": "string",
          "name": "_tName",
          "type": "string"
        },
        {
          "internalType": "string",
          "name": "_date",
          "type": "string"
        },
        {
          "internalType": "string",
          "name": "hName",
          "type": "string"
        }
      ],
      "name": "newRecord",
      "outputs": [],
      "stateMutability": "nonpayable",
      "type": "function"
    },
    {
      "inputs": [
        {
          "internalType": "uint256",
          "name": "_ID",
          "type": "uint256"
        }
      ],
      "name": "signRecord",
      "outputs": [],
      "stateMutability": "nonpayable",
      "type": "function"
    }
  ],
  "bytecode": "0x608060405234801562000010575f80fd5b506040516200164938038062001649833981810160405281019062000036919062000121565b335f806101000a81548173ffffffffffffffffffffffffffffffffffffffff021916908373ffffffffffffffffffffffffffffffffffffffff1602179055508060015f6101000a81548173ffffffffffffffffffffffffffffffffffffffff021916908373ffffffffffffffffffffffffffffffffffffffff1602179055505062000151565b5f80fd5b5f73ffffffffffffffffffffffffffffffffffffffff82169050919050565b5f620000eb82620000c0565b9050919050565b620000fd81620000df565b811462000108575f80fd5b50565b5f815190506200011b81620000f2565b92915050565b5f60208284031215620001395762000138620000bc565b5b5f62000148848285016200010b565b91505092915050565b6114ea806200015f5f395ff3fe608060405234801561000f575f80fd5b5060043610610060575f3560e01c8063549b39fc1461006457806386c8ce7f14610094578063a508d0ed146100b2578063e4f5e4cb146100ce578063ee96b9eb146100ea578063f9db398214610121575b5f80fd5b61007e60048036038101906100799190610971565b61013f565b60405161008b91906109ab565b60405180910390f35b61009c61015f565b6040516100a99190610a03565b60405180910390f35b6100cc60048036038101906100c79190610971565b610184565b005b6100e860048036038101906100e39190610b58565b610572565b005b61010460048036038101906100ff9190610971565b610708565b604051610118989796959493929190610cb7565b60405180910390f35b61012961090a565b6040516101369190610a03565b60405180910390f35b6003818154811061014e575f80fd5b905f5260205f20015f915090505481565b60015f9054906101000a900473ffffffffffffffffffffffffffffffffffffffff1681565b5f8054906101000a900473ffffffffffffffffffffffffffffffffffffffff1673ffffffffffffffffffffffffffffffffffffffff163373ffffffffffffffffffffffffffffffffffffffff161480610229575060015f9054906101000a900473ffffffffffffffffffffffffffffffffffffffff1673ffffffffffffffffffffffffffffffffffffffff163373ffffffffffffffffffffffffffffffffffffffff16145b610268576040517f08c379a000000000000000000000000000000000000000000000000000000000815260040161025f90610db8565b60405180910390fd5b8060025f8281526020019081526020015f206006015f9054906101000a900460ff166102c9576040517f08c379a00000000000000000000000000000000000000000000000000000000081526004016102c090610e20565b60405180910390fd5b60025f8281526020019081526020015f2060060160019054906101000a900473ffffffffffffffffffffffffffffffffffffffff1673ffffffffffffffffffffffffffffffffffffffff165f73ffffffffffffffffffffffffffffffffffffffff160361036b576040517f08c379a000000000000000000000000000000000000000000000000000000000815260040161036290610e88565b60405180910390fd5b60025f8281526020019081526020015f2060060160019054906101000a900473ffffffffffffffffffffffffffffffffffffffff1673ffffffffffffffffffffffffffffffffffffffff163373ffffffffffffffffffffffffffffffffffffffff160361040d576040517f08c379a000000000000000000000000000000000000000000000000000000000815260040161040490610f16565b60405180910390fd5b600160025f8381526020019081526020015f206007015f3373ffffffffffffffffffffffffffffffffffffffff1673ffffffffffffffffffffffffffffffffffffffff1681526020019081526020015f20540361049f576040517f08c379a000000000000000000000000000000000000000000000000000000000815260040161049690610f7e565b60405180910390fd5b5f60025f8481526020019081526020015f2090506001816007015f3373ffffffffffffffffffffffffffffffffffffffff1673ffffffffffffffffffffffffffffffffffffffff1681526020019081526020015f2081905550806002015f81548092919061050c90610fc9565b9190505550600281600201540361056d577fc2f555c23b76b78740a06bbfda9d00e05b6234a7e1123d7408fe22f39eaeb81f815f01548260030183600401846005018560010154604051610564959493929190611100565b60405180910390a15b505050565b8460025f8281526020019081526020015f206006015f9054906101000a900460ff16156105d4576040517f08c379a00000000000000000000000000000000000000000000000000000000081526004016105cb906111d6565b60405180910390fd5b5f60025f8881526020019081526020015f209050338160060160016101000a81548173ffffffffffffffffffffffffffffffffffffffff021916908373ffffffffffffffffffffffffffffffffffffffff16021790555086815f018190555084816003019081610644919061137f565b5083816004019081610656919061137f565b5082816005019081610668919061137f565b508581600101819055506001816006015f6101000a81548160ff0219169083151502179055505f8160020181905550600387908060018154018082558091505060019003905f5260205f20015f90919091909150557fc20f59e9d68948c943c420ad03b09ad5b4b7feccfe038eb67e9845033df38e10815f01548686868a6040516106f795949392919061144e565b60405180910390a150505050505050565b6002602052805f5260405f205f91509050805f0154908060010154908060020154908060030180546107399061103d565b80601f01602080910402602001604051908101604052809291908181526020018280546107659061103d565b80156107b05780601f10610787576101008083540402835291602001916107b0565b820191905f5260205f20905b81548152906001019060200180831161079357829003601f168201915b5050505050908060040180546107c59061103d565b80601f01602080910402602001604051908101604052809291908181526020018280546107f19061103d565b801561083c5780601f106108135761010080835404028352916020019161083c565b820191905f5260205f20905b81548152906001019060200180831161081f57829003601f168201915b5050505050908060050180546108519061103d565b80601f016020809104026020016040519081016040528092919081815260200182805461087d9061103d565b80156108c85780601f1061089f576101008083540402835291602001916108c8565b820191905f5260205f20905b8154815290600101906020018083116108ab57829003601f168201915b505050505090806006015f9054906101000a900460ff16908060060160019054906101000a900473ffffffffffffffffffffffffffffffffffffffff16905088565b5f8054906101000a900473ffffffffffffffffffffffffffffffffffffffff1681565b5f604051905090565b5f80fd5b5f80fd5b5f819050919050565b6109508161093e565b811461095a575f80fd5b50565b5f8135905061096b81610947565b92915050565b5f6020828403121561098657610985610936565b5b5f6109938482850161095d565b91505092915050565b6109a58161093e565b82525050565b5f6020820190506109be5f83018461099c565b92915050565b5f73ffffffffffffffffffffffffffffffffffffffff82169050919050565b5f6109ed826109c4565b9050919050565b6109fd816109e3565b82525050565b5f602082019050610a165f8301846109f4565b92915050565b5f80fd5b5f80fd5b5f601f19601f8301169050919050565b7f4e487b71000000000000000000000000000000000000000000000000000000005f52604160045260245ffd5b610a6a82610a24565b810181811067ffffffffffffffff82111715610a8957610a88610a34565b5b80604052505050565b5f610a9b61092d565b9050610aa78282610a61565b919050565b5f67ffffffffffffffff821115610ac657610ac5610a34565b5b610acf82610a24565b9050602081019050919050565b828183375f83830152505050565b5f610afc610af784610aac565b610a92565b905082815260208101848484011115610b1857610b17610a20565b5b610b23848285610adc565b509392505050565b5f82601f830112610b3f57610b3e610a1c565b5b8135610b4f848260208601610aea565b91505092915050565b5f805f805f60a08688031215610b7157610b70610936565b5b5f610b7e8882890161095d565b9550506020610b8f8882890161095d565b945050604086013567ffffffffffffffff811115610bb057610baf61093a565b5b610bbc88828901610b2b565b935050606086013567ffffffffffffffff811115610bdd57610bdc61093a565b5b610be988828901610b2b565b925050608086013567ffffffffffffffff811115610c0a57610c0961093a565b5b610c1688828901610b2b565b9150509295509295909350565b5f81519050919050565b5f82825260208201905092915050565b5f5b83811015610c5a578082015181840152602081019050610c3f565b5f8484015250505050565b5f610c6f82610c23565b610c798185610c2d565b9350610c89818560208601610c3d565b610c9281610a24565b840191505092915050565b5f8115159050919050565b610cb181610c9d565b82525050565b5f61010082019050610ccb5f83018b61099c565b610cd8602083018a61099c565b610ce5604083018961099c565b8181036060830152610cf78188610c65565b90508181036080830152610d0b8187610c65565b905081810360a0830152610d1f8186610c65565b9050610d2e60c0830185610ca8565b610d3b60e08301846109f4565b9998505050505050505050565b7f596f7520617265206e6f7420617574686f72697a656420746f207369676e20745f8201527f6869732e00000000000000000000000000000000000000000000000000000000602082015250565b5f610da2602483610c2d565b9150610dad82610d48565b604082019050919050565b5f6020820190508181035f830152610dcf81610d96565b9050919050565b7f5265636f72656420646f6573206e6f74206578697374000000000000000000005f82015250565b5f610e0a601683610c2d565b9150610e1582610dd6565b602082019050919050565b5f6020820190508181035f830152610e3781610dfe565b9050919050565b7f41646472657373206973207a65726f00000000000000000000000000000000005f82015250565b5f610e72600f83610c2d565b9150610e7d82610e3e565b602082019050919050565b5f6020820190508181035f830152610e9f81610e66565b9050919050565b7f596f7520617265206e6f7420617574686f72697a656420746f20706572666f725f8201527f6d207468697320616374696f6e00000000000000000000000000000000000000602082015250565b5f610f00602d83610c2d565b9150610f0b82610ea6565b604082019050919050565b5f6020820190508181035f830152610f2d81610ef4565b9050919050565b7f53616d6520706572736f6e2063616e6e6f74207369676e2074776963652e00005f82015250565b5f610f68601e83610c2d565b9150610f7382610f34565b602082019050919050565b5f6020820190508181035f830152610f9581610f5c565b9050919050565b7f4e487b71000000000000000000000000000000000000000000000000000000005f52601160045260245ffd5b5f610fd38261093e565b91507fffffffffffffffffffffffffffffffffffffffffffffffffffffffffffffffff820361100557611004610f9c565b5b600182019050919050565b7f4e487b71000000000000000000000000000000000000000000000000000000005f52602260045260245ffd5b5f600282049050600182168061105457607f821691505b60208210810361106757611066611010565b5b50919050565b5f819050815f5260205f209050919050565b5f815461108b8161103d565b6110958186610c2d565b9450600182165f81146110af57600181146110c5576110f7565b60ff1983168652811515602002860193506110f7565b6110ce8561106d565b5f5b838110156110ef578154818901526001820191506020810190506110d0565b808801955050505b50505092915050565b5f60a0820190506111135f83018861099c565b8181036020830152611125818761107f565b90508181036040830152611139818661107f565b9050818103606083015261114d818561107f565b905061115c608083018461099c565b9695505050505050565b7f5265636f72642077697468207468697320494420616c726561647920657869735f8201527f7473000000000000000000000000000000000000000000000000000000000000602082015250565b5f6111c0602283610c2d565b91506111cb82611166565b604082019050919050565b5f6020820190508181035f8301526111ed816111b4565b9050919050565b5f6020601f8301049050919050565b5f82821b905092915050565b5f6008830261123e7fffffffffffffffffffffffffffffffffffffffffffffffffffffffffffffffff82611203565b6112488683611203565b95508019841693508086168417925050509392505050565b5f819050919050565b5f61128361127e6112798461093e565b611260565b61093e565b9050919050565b5f819050919050565b61129c83611269565b6112b06112a88261128a565b84845461120f565b825550505050565b5f90565b6112c46112b8565b6112cf818484611293565b505050565b5b818110156112f2576112e75f826112bc565b6001810190506112d5565b5050565b601f821115611337576113088161106d565b611311846111f4565b81016020851015611320578190505b61133461132c856111f4565b8301826112d4565b50505b505050565b5f82821c905092915050565b5f6113575f198460080261133c565b1980831691505092915050565b5f61136f8383611348565b9150826002028217905092915050565b61138882610c23565b67ffffffffffffffff8111156113a1576113a0610a34565b5b6113ab825461103d565b6113b68282856112f6565b5f60209050601f8311600181146113e7575f84156113d5578287015190505b6113df8582611364565b865550611446565b601f1984166113f58661106d565b5f5b8281101561141c578489015182556001820191506020850194506020810190506113f7565b868310156114395784890151611435601f891682611348565b8355505b6001600288020188555050505b505050505050565b5f60a0820190506114615f83018861099c565b81810360208301526114738187610c65565b905081810360408301526114878186610c65565b9050818103606083015261149b8185610c65565b90506114aa608083018461099c565b969550505050505056fea2646970667358221220458ee578ec4edf64f9a6688b9c5017f083e406d35c0735325391a2560cf0df8864736f6c63430008150033",
  "immutableReferences": {},
  "source": "// SPDX-License-Identifier: MIT\r\npragma solidity ^0.8.0;\r\n\r\ncontract HealthCare {\r\n    address public hospitalAdmin;\r\n    address public labAdmin;\r\n\r\n    struct Record {\r\n        uint256 ID;\r\n        uint256 price;\r\n        uint256 signatureCount;\r\n        string testName;\r\n        string date;\r\n        string hospitalName;\r\n        bool isValue;\r\n        address pAddr;\r\n        mapping (address => uint256) signatures;\r\n    }\r\n\r\n    constructor(address _labAdmin) {\r\n        hospitalAdmin = msg.sender;\r\n        labAdmin = _labAdmin;\r\n    }\r\n\r\n    // Mapping to store record\r\n    mapping (uint256=> Record) public _records;\r\n    uint256[] public recordsArr;\r\n\r\n    event recordCreated(uint256 ID, string testName, string date, string hospitalName, uint256 price);\r\n    event recordSigned(uint256 ID, string testName, string date, string hospitalName, uint256 price);\r\n\r\n    modifier signOnly {\r\n        require (msg.sender == hospitalAdmin || msg.sender == labAdmin, \"You are not authorized to sign this.\");\r\n        _;\r\n    }\r\n\r\n    modifier checkAuthBeforeSign(uint256 _ID) {\r\n        require(_records[_ID].isValue, \"Recored does not exist\");\r\n        require(address(0) != _records[_ID].pAddr, \"Address is zero\");\r\n        require(msg.sender != _records[_ID].pAddr, \"You are not authorized to perform this action\");\r\n        require(_records[_ID].signatures[msg.sender] != 1, \"Same person cannot sign twice.\");\r\n        _;\r\n\r\n    }\r\n\r\n    modifier validateRecord(uint256 _ID) {\r\n        // Only allows new records to be created\r\n        require(!_records[_ID].isValue, \"Record with this ID already exists\");\r\n        _;\r\n    }\r\n\r\n    // Create new record\r\n    function newRecord (\r\n        uint256 _ID,\r\n        uint256 price,\r\n        string memory _tName,\r\n        string memory _date,\r\n        string memory hName\r\n    )\r\n    validateRecord(_ID) public {\r\n        Record storage _newrecord = _records[_ID];\r\n        _newrecord.pAddr = msg.sender;\r\n        _newrecord.ID = _ID;\r\n        _newrecord.testName = _tName;\r\n        _newrecord.date = _date;\r\n        _newrecord.hospitalName = hName;\r\n        _newrecord.price = price;\r\n        _newrecord.isValue = true;\r\n        _newrecord.signatureCount = 0;\r\n\r\n        recordsArr.push(_ID);\r\n        emit  recordCreated(_newrecord.ID, _tName, _date, hName, price);\r\n    }\r\n\r\n    // Function to sign a record\r\n    function signRecord(uint256 _ID) signOnly checkAuthBeforeSign(_ID) public {\r\n        Record storage records = _records[_ID];\r\n        records.signatures[msg.sender] = 1;\r\n        records.signatureCount++;\r\n\r\n        // Checks if the record has been signed by both the authorities to process insurance claim\r\n        if(records.signatureCount == 2)\r\n            emit  recordSigned(records.ID, records.testName, records.date, records.hospitalName, records.price);\r\n\r\n    }\r\n}\r\n",
  "sourcePath": "C:\\Users\\susmi\\OneDrive\\Desktop\\healthInsurance\\contracts\\HealthCare.sol",
  "compiler": {
    "name": "solc",
    "version": "0.8.21+commit.d9974bed.Emscripten.clang"
  },
  "schemaVersion": "3.4.16",
  "updatedAt": "2024-10-03T16:01:45.587Z",
  "networkType": "ethereum",
  "devdoc": {
    "kind": "dev",
    "methods": {},
    "version": 1
  },
  "userdoc": {
    "kind": "user",
    "methods": {},
    "version": 1
  }
}